:100000000C945D000C9485000C9485000C94850084
:100010000C9485000C9485000C9485000C9485004C
:100020000C9485000C9485000C9485000C9485003C
:100030000C9485000C9485000C9485000C9485002C
:100040000C94AA010C9485000C9485000C948500F6
:100050000C9485000C9485000C9485000C9485000C
:100060000C9485000C94850000000008000201003B
:100070000003040700000000000000000000000072
:10008000250028002B0000000000240027002A0083
:10009000040404040404040402020202020203032E
:1000A0000303030301020408102040800102040836
:1000B00010200102040810206B0211241FBECFEF94
:1000C000D8E0DEBFCDBF21E0A6E0B1E001C01D92C7
:1000D000AD31B207E1F711E0A0E0B1E0E0E8F7E010
:1000E00002C005900D92A630B107D9F710E0CDE51A
:1000F000D0E004C02197FE010E949302CC35D107C5
:10010000C9F70E94F4010C94BE030C94000090E027
:10011000FC01EC55FF4F249180579F4FFC018491C7
:10012000882399F090E0880F991FFC01EA57FF4F50
:10013000A591B491FC01E458FF4F859194918FB73C
:10014000F894EC91E22BEC938FBF089590E0FC01C2
:10015000E859FF4F2491FC01EC55FF4F3491FC010D
:10016000E057FF4FE491EE23C9F0222339F023300A
:1001700001F1A8F4213019F1223029F1F0E0EE0F5D
:10018000FF1FE458FF4FA591B4918FB7F894EC91FD
:10019000611126C030953E233C938FBF08952730D0
:1001A000A9F02830C9F0243049F7809180008F7D74
:1001B00003C0809180008F7780938000DFCF84B56B
:1001C0008F7784BDDBCF84B58F7DFBCF8091B0006E
:1001D0008F778093B000D2CF8091B0008F7DF9CF20
:1001E0003E2BDACF3FB7F89480910B0190910C0130
:1001F000A0910D01B0910E0126B5A89B05C02F3F1F
:1002000019F00196A11DB11D3FBFBA2FA92F982F3C
:100210008827BC01CD01620F711D811D911D42E037
:10022000660F771F881F991F4A95D1F708958F92FF
:100230009F92AF92BF92CF92DF92EF92FF920E9475
:10024000F2004B015C018CE2C82EDD24D394E12C3A
:10025000F12C0E94F200681979098A099B09683E0D
:10026000734081059105A8F321E0C21AD108E10885
:10027000F10888EE880E83E0981EA11CB11CC11401
:10028000D104E104F10429F7FF90EF90DF90CF90C3
:10029000BF90AF909F908F900895EF92FF920F9331
:1002A0001F93CF93DF93982F959595959595E09112
:1002B0001701F0911801E90FF11D97FDFA952081C2
:1002C000382F377081E090E0A0E0B0E004C0880FE4
:1002D000991FAA1FBB1F3A95D2F7662369F1822B9B
:1002E000808360E0809113010E94A600C0911501F7
:1002F000D09116012197D7FD22C0E0911701F0910E
:100300001801EC0FFD1F0081F0900F01E09011012A
:1003100018E0602F661F6627661F8E2D0E94A600BC
:10032000000F61E08F2D0E94A60060E08F2D0E94DB
:10033000A600115071F7DECF80958223D1CF61E006
:1003400080911301DF91CF911F910F91FF90EF905A
:100350000C94A6001F920F920FB60F9211242F93A8
:100360003F938F939F93AF93BF9380910701909199
:100370000801A0910901B0910A013091060123E022
:10038000230F2D3758F50196A11DB11D20930601AD
:100390008093070190930801A0930901B0930A018B
:1003A00080910B0190910C01A0910D01B0910E0173
:1003B0000196A11DB11D80930B0190930C01A09398
:1003C0000D01B0930E01BF91AF919F918F913F911D
:1003D0002F910F900FBE0F901F90189526E8230FB6
:1003E0000296A11DB11DD2CF789484B5826084BDE0
:1003F00084B5816084BD85B5826085BD85B5816029
:1004000085BD80916E00816080936E0010928100A6
:100410008091810082608093810080918100816061
:100420008093810080918000816080938000809122
:10043000B10084608093B1008091B00081608093AE
:10044000B00080917A00846080937A0080917A0075
:10045000826080937A0080917A00816080937A0034
:1004600080917A00806880937A001092C10000E049
:1004700010E0D0E0C0E0809115019091160133E0CA
:10048000880F991F3A95E1F7C817D90724F461E05E
:100490008C2F0E944D010E9417012196C831D10571
:1004A00051F7809115019091160123E0880F991F53
:1004B0002A95E1F7C817D90724F460E08C2F0E9431
:1004C0004D010E941701219761F70115110589F26D
:1004D0000E940000CECFCF93DF93CFE0D1E084E045
:1004E00090E09983888383E090E09B838A8322E075
:1004F00030E03D832C839F838E8384E00E948700BD
:100500008A810E9487008C810E94870083E090E0AE
:100510000E949902FC0199878887108211821282B9
:10052000DF91CF910895EE0FFF1F0590F491E02D1C
:1005300009940F931F93CF93DF938230910510F4AA
:1005400082E090E0E0911B01F0911C0130E020E09E
:10055000B0E0A0E0309799F42115310509F44AC0C4
:10056000281B390B24303105D8F58A819B81611510
:10057000710589F1FB0193838283FE0111C04081E3
:1005800051810281138148175907E0F04817590734
:1005900099F4109761F012960C93129713961C938E
:1005A0003296CF01DF91CF911F910F910895009363
:1005B0001B0110931C01F4CF2115310551F0421796
:1005C000530738F0A901DB019A01BD01DF01F801F1
:1005D000C1CFEF01F9CF90931C0180931B01CDCFC8
:1005E000FE01E20FF31F8193919322503109398369
:1005F0002883D7CF2091190130911A01232B41F480
:10060000209102013091030130931A0120931901C6
:1006100020910001309101012115310541F42DB7E0
:100620003EB74091040150910501241B350BE09128
:100630001901F0911A01E217F307A0F42E1B3F0BEA
:100640002817390778F0AC014E5F5F4F2417350744
:1006500048F04E0F5F1F50931A0140931901819388
:1006600091939FCFF0E0E0E09CCFCF93DF93009792
:10067000E9F0FC01329713821282A0911B01B09124
:100680001C01ED0130E020E01097A1F420813181C0
:10069000820F931F2091190130911A0128173907F1
:1006A00009F061C0F0931A01E0931901DF91CF9135
:1006B0000895EA01CE17DF07E8F54A815B819E01C4
:1006C00041155105B1F7E901FB83EA83499159913D
:1006D000C40FD51FEC17FD0761F48081918102964C
:1006E000840F951FE90199838883828193819B837D
:1006F0008A83F0E0E0E012968D919C911397009729
:10070000B9F52D913C911197CD010296820F931F5F
:100710002091190130911A012817390739F63097BD
:1007200051F510921C0110921B01B0931A01A09375
:100730001901BCCFD383C28340815181840F951F9F
:10074000C817D90761F44E5F5F4F88819981480FC0
:10075000591F518340838A819B8193838283211512
:10076000310509F0B0CFF0931C01E0931B019ECF3F
:10077000FD01DC01C0CF13821282D7CFF894FFCFE6
:0607800000001D018000D5
:00000001FF
